:10000000F6EF13F00000000000EF00F00000000029
:0A0010000000000000000000F3D71C
:0E001C000001A6B102D08B9801D08B88120093
:0E002A000001A6B102D08B9601D08B86120089
:0E0038000001A6B102D08D9601D08D86120077
:0E0046000001A6B102D0899401D08984120075
:0E0054000001A6B102D08B9C01D08B8C120053
:0E0062000001A6B102D08B9401D08B84120055
:0E0070000001A6B102D08B9A01D08B8A12003B
:0E007E000001A6B102D08B9E01D08B8E120025
:0E008C000001A6B102D08A9201D08A82120031
:0E009A000001A6B102D08D9401D08D84120019
:0E00A8000001A6B102D08F9201D08F8212000B
:0E00B6000001A6B102D08F9401D08F841200F9
:0E00C4000001A6B102D08B9801D08B881200EB
:0E00D2000001A6B102D08B9601D08B861200E1
:0E00E0000001A6B102D08A9401D08A841200D9
:0E00EE000001A6B102D08B9801D08B881200C1
:0E00FC000001A6B102D08B9601D08B861200B7
:0E010A000001A6B102D08F9001D08F801200AC
:0E0118000001A6B102D08B9A01D08B8A120092
:0E0126000001A6B102D08B9801D08B88120088
:0E0134000001A6B102D08B9601D08B8612007E
:0E0142000001A6B102D08B9201D08B82120078
:0E0150000001A6B102D08B9A01D08B8A12005A
:0E015E000001A6B102D08D9001D08D8012005C
:10016C000F0121B302D00000FBD7A6C01CFF120068
:0E017C00ACB202D00000FCD7A6C0ADFF12004E
:0E018A000001A6B102D08B9001D08B80120034
:0E0198000001A6B102D0899001D0898012002A
:0E01A6000001A6B102D08A9001D08A8012001A
:0E01B4000001A6B102D08D9201D08D82120002
:0E01C2000001A6B102D0899801D089881200F0
:0E01D0000001A6B102D08B9801D08B881200DE
:0E01DE000001A6B102D08B9601D08B861200D4
:0E01EC000001A6B102D0899201D089821200D2
:0E01FA000001A6B102D08B9C01D08B8C1200AC
:0E0208000001A6B102D08B9E01D08B8E120099
:0E0216000001A6B102D08B9801D08B88120097
:0E0224000001A6B102D08B9601D08B8612008D
:1002320068B409D01F0E6614016E0150000A03E172
:0A024200010E006E01D0006A1200E8
:10024C00F250026EF29E0500FF6A0150FE6E0050E5
:08025C00FD6E02BEF28E1200DD
:10026400C7B409D01F0EC514016E0150000A03E182
:0A027400010E006E01D0006A1200B6
:0A027E00000E82BA010E006E12009D
:0A028800000E82BE010E006E12008F
:0A029200000E84B0010E006E120091
:0A029C00000E82B8010E006E120081
:0A02A600000E81B0010E006E120080
:0A02B000000E82B6010E006E12006F
:0A02BA00000E82BC010E006E12005F
:0A02C400000E82B0010E006E120061
:0A02CE00000EACB2010E006E12002B
:0A02D800000E9EBA010E006E120027
:1002E200AECF01F0ABA202D0AB98AB8801C000F058
:0202F2001200F8
:1002F4001DCF01F00F0122A302D02299228901C04F
:0403040000F01200F3
:0A030800000E80B0010E006E12001E
:0C031200000E0F0121B3010E006E12005E
:0A031E00000EA4BA010E006E1200DA
:0A032800000E82B8010E006E1200F4
:0A033200000E82B4010E006E1200EE
:0A033C00000E82BA010E006E1200DE
:0A034600000E82B6010E006E1200D8
:0A035000000E81B2010E006E1200D3
:0A035A00000E82BE010E006E1200BC
:0A036400000E82BC010E006E1200B4
:0A036E00000E82B8010E006E1200AE
:0A037800000E82B8010E006E1200A4
:0A038200000E82B6010E006E12009C
:0A038C00000E82B2010E006E120096
:0A039600000E80B2010E006E12008E
:0A03A000000E82B6010E006E12007E
:0A03AA00000E84B2010E006E120076
:0A03B400000E80B8010E006E12006A
:1003BE00A19AA0C06AFF1FC0A1F020C0A2F021C068
:1003CE00A3F022C0A4F068A421D01F502010211049
:1003DE0022101BE00001A151A211A311A4110EE1E4
:1003EE0035C0E1FF36C0E2FF040EE66E33C000F00A
:1003FE0034C001F024DF010E006E3AD0010E000170
:10040E00A15F000EA25BA35BA45BDDD71FC0A1F0B2
:10041E0020C0A2F021C0A3F022C0A4F0A1BA21D026
:10042E001F502010211022101BE00001A151A2111B
:10043E00A311A4110EE135C0E1FF36C0E2FF040E98
:10044E00E66E33C000F034C001F0F9DE010E006E2E
:10045E000FD0010E0001A15F000EA25BA35BA45B97
:10046E00DDD766BC02D0006A03D06684020E006E31
:02047E0012006A
:1004800015C0A0F016C0A1F017C0A2F018C0A3F0CC
:10049000C582C5A21FD0155016101710181019E0EC
:1004A0000001A051A111A211A3110CE131C0E1FF83
:1004B00032C0E2FF060EE66E2FC000F030C001F041
:1004C000C5DE08D0010E0001A05F000EA15BA25B9B
:0604D000A35BDFD7120060
:0404D600C5841200C7
:1004DA0015C0A2F016C0A3F017C0A4F018C0A5F06A
:1004EA009E96C5869EB61FD0155016101710181066
:1004FA0019E00001A251A311A411A5110CE131C008
:10050A00E1FF32C0E2FF030EE66E2FC000F030C0FA
:10051A0001F097DE08D0010E0001A25F000EA35B76
:10052A00A45BA55BDFD70001C9CFA1F0A051000AE7
:10053A0002E1C58A01D0C59A9E96C58815C0A2F067
:10054A0016C0A3F017C0A4F018C0A5F09EB61FD01D
:10055A00155016101710181019E00001A251A31116
:10056A00A411A5110CE131C0E1FF32C0E2FF030E74
:10057A00E66E2FC000F030C001F063DE08D0010E35
:10058A000001A25F000EA35BA45BA55BDFD7A1C03D
:04059A0000F012005B
:10059E009E96A0C0C9FF15C0A1F016C0A2F017C04C
:1005AE00A3F018C0A4F0C7A421D015501610171030
:1005BE0018101BE00001A151A211A311A4110EE10C
:1005CE0031C0E1FF32C0E2FF040EE66E2FC000F034
:1005DE0030C001F034DE010E006E3AD0010E000183
:1005EE00A15F000EA25BA35BA45BDDD715C0A1F0DB
:1005FE0016C0A2F017C0A3F018C0A4F09EB621D06A
:10060E0015501610171018101BE00001A151A21161
:10061E00A311A4110EE131C0E1FF32C0E2FF040EBE
:10062E00E66E2FC000F030C001F009DE010E006E44
:10063E000FD0010E0001A15F000EA25BA35BA45BB5
:10064E00DDD7C5BC02D0006A03D0C584020E006E91
:02065E00120088
:100660001FC0A2F020C0A3F021C0A4F022C0A5F0BA
:10067000A19A6686A1BA1FD01F5020102110221007
:1006800019E00001A251A311A411A5110CE135C07C
:10069000E1FF36C0E2FF030EE66E33C000F034C067
:1006A00001F0D4DD08D0010E0001A25F000EA35BB3
:1006B000A45BA55BDFD700016ACFA1F0A051000ABF
:1006C00002E1668A01D0669AA19A66881FC0A2F0EC
:1006D00020C0A3F021C0A4F022C0A5F0A1BA1FD071
:1006E0001F5020102110221019E00001A251A31167
:1006F000A411A5110CE135C0E1FF36C0E2FF030EE5
:10070000E66E33C000F034C001F0A0DD08D0010E69
:100710000001A25F000EA35BA45BA55BDFD7A1C0B5
:0407200000F01200D3
:100724001FC0A0F020C0A1F021C0A2F022C0A3F0FD
:10073400668266A21FD01F5020102110221019E0DB
:100744000001A051A111A211A3110CE135C0E1FFD8
:1007540036C0E2FF060EE66E33C000F034C001F08E
:1007640073DD08D0010E0001A05F000EA15BA25B47
:06077400A35BDFD71200B9
:10077A000B820BAEC7EF03F00368026801680068DA
:08078A000A360232FF0E1200D4
:0E079200026A016A006A086A036A000E120019
:1007A00015C0A2F016C0A3F017C0A4F018C0A5F0A1
:1007B0000001A06BA16BA151120802E1A0518E08AB
:1007C00008E350DD005201E004D00001A04BA12B52
:1007D000F2D70001120EA15D02E18F0EA05D03E3CE
:1007E0007B0E006E24D0C580C5A020D015501610F9
:1007F000171018101AE0A251A311A411A5110EE1AF
:1008000031C0E1FF32C0E2FF050EE66E2FC000F0FE
:1008100030C001F01BDD010E006E09D0010E000199
:10082000A25F000EA35BA45BA55BDED7006A12008B
:0408300066841200C8
:100834000B840BAE25EF04F0010E036E026A016A0D
:0A084400006A0A360232FF0E1200AD
:08084E000AAE029E000E12002A
:0A085600000E84B4010E006E1200C3
:0A086000000E82B6010E006E1200B9
:0A086A00000E82B8010E006E1200AD
:0A087400000E80B4010E006E1200A9
:10087E001FC0A2F020C0A3F021C0A4F022C0A5F09A
:10088E000001A06BA16BA151120802E1A0518E08CC
:10089E0008E3C8DC005201E004D00001A04BA12BFC
:1008AE00F2D70001120EA15D02E18F0EA05D03E3EF
:1008BE007B0E006E24D0668066A020D01F502010C4
:1008CE00211022101AE0A251A311A411A5110EE1BC
:1008DE0035C0E1FF36C0E2FF050EE66E33C000F014
:1008EE0034C001F0ACDC010E006E09D0010E000127
:1008FE00A25F000EA35BA45BA55BDED7006A1200AD
:0A090E00000E84B6010E006E120008
:0A091800000E82BA010E006E1200FC
:0A092200000E86B2010E006E1200F6
:0A092C00000E82B6010E006E1200EC
:0A093600000E82B8010E006E1200E0
:0A094000000E86B0010E006E1200DA
:0A094A00000E81B4010E006E1200D1
:0A095400000E86B4010E006E1200C2
:10095E000CB0F1EF04F00CA297EF05F00E6A000E4A
:10096E00026408EF05F0F00E0214D8A4D3EF04F0E1
:10097E00023A01380F0B02260138F00B016E0038D7
:10098E000F0B01260038F00B006E08380F0B0026F7
:10099E000838F00B086E0E84D89002BEECEF04F00F
:1009AE0008360036013602360E2A02BEECEF04F08F
:1009BE0008360036013602360E2A02BEECEF04F07F
:1009CE0008360036013602360E2A0E5003648DEFBD
:1009DE0005F0035E0BBC08AE92EF05F0D880800EDA
:1009EE0008640030000E002201220222D8A092EFED
:1009FE0005F0023201320032034A97EF05F092EF12
:100A0E0005F001C002F000C001F008C000F0086A55
:100A1E00000E0E8602643FEF05F0F00E0214D8A40D
:100A2E0027EF05F0023A01380F0B02260138F00BC2
:100A3E00016E00380F0B01260038F00B006E0E848D
:100A4E00D89002BEECEF04F00036013602360E2AC4
:100A5E0002BEECEF04F00036013602360E2A02BE5C
:100A6E00ECEF04F00036013602360E2AECEF04F0FD
:100A7E0001C002F000C001F0006A000E0E960E8852
:100A8E0002646CEF05F0F00E0214D8A457EF05F0D7
:100A9E00023A01380F0B02260138F00B016E0E845C
:100AAE00D89002BEECEF04F0013602360E2A02BEDA
:100ABE00ECEF04F0013602360E2A02BEECEF04F023
:100ACE00013602360E2AECEF04F001C002F0016A84
:100ADE00000E0E8602649CEF05F0F00E0214D8A4F0
:100AEE007BEF05F0023A0E84D89002BEECEF04F0D4
:100AFE0002360E2A02BEECEF04F002360E2A02BEB9
:100B0E00ECEF04F002360E2AECEF04F0010E0C6E40
:100B1E008ADE9FEF05F0020E0C6E92DE9FEF05F05F
:100B2E00040E0C6E23DE9FEF05F0080E0C6E2ADE0F
:020B3E001200A3
:100B40000001966B976B51C000F052C001F026EC8B
:100B500001F000C096F0000E0001976F96C000F003
:060B600097C001F0120035
:100B66007C0E0001716F010E726FA60E736F000E80
:100B7600746FE20E6D6F020E6E6F000E6F6F000ED9
:100B8600706FD80E796F020E7A6F000E7B6F000EB3
:100B96007C6FCE0E756F020E766F000E776F000EAD
:100BA600786FAC8A900EAB6E948E949C9EAA03D0FE
:080BB600AECF00F0FBD71200E6
:100BBE006C0E0001716F010E726FA60E736F000E38
:100BCE00746FF40E6D6F020E6E6F000E6F6F000E6F
:100BDE00706F1E0E796F030E7A6F000E7B6F000E14
:100BEE007C6F120E756F030E766F000E776F000E10
:100BFE00786F0F01218B900E226F98849892A4AA81
:0A0C0E0003D01DCF00F0FBD7120049
:100C1800640E2B6E020E2C6E000E2D6E000E2E6EC4
:100C2800A00E436E070E446E000E456E000E466E13
:100C3800800E376E040E386E000E396E000E3A6E56
:100C4800DA0E3B6E040E3C6EA00E3D6E000E3E6E3C
:100C58009E0E0001816F050E826FA00E836F000E3D
:100C6800846FD60E7D6F040E7E6F000E7F6F000EB0
:100C7800806F949894968B988B9694889486C79E48
:080C8800C79C380EC66E120075
:100C90000C6A0E6A0250D8A461EF06F001C002F09F
:100CA00000C001F0006A0E860250D8A461EF06F081
:100CB00001C002F0016A0E960E880250D8B473EF9C
:100CC00006F00E50035ED8A4D8A078EF06F0D890B6
:100CD00002BE7DEF06F0003601360236032E68EFC5
:100CE00006F078EF06F0010E0C6E53DD80EF06F093
:100CF000020E0C6E9FDD80EF06F0040E0C6EA7DD79
:020D00001200DF
:100D020000019E6B9F6B97C09CF098C09DF096C0AF
:100D120000F000360090008067C0E1FF68C0E2FF8B
:100D220000C0E6FF65C000F066C001F026EC01F0ED
:100D3200005000019E13000E9F13010E995F000EDA
:100D42009A5B99519A1116E06BC0E1FF6CC0E2FF09
:100D5200010EE66E69C000F06AC001F026EC01F0F7
:100D62009CC0E1FF9DC0E2FF00C0E6FF00019C4B7A
:100D72009D2BE3D76BC0E1FF6CC0E2FFE66A69C05E
:100D820000F06AC001F026EC01F09CC0E1FF9DC0BA
:100D9200E2FF00C0E6FF00019B51000A06E161C0CC
:100DA20000F062C001F026EC01F000019B51010A43
:100DB20006E159C000F05AC001F026EC01F09EC0D5
:080DC20000F09FC001F01200D7
:100DCA00D00E0C6EC90E0D6E0D2EFED70C2EFCD752
:060DDA0000000000120001
:100DE000025006180E6E086A096A0B6A03500764FF
:100DF000E3EF07F006500A6E068E028E03500B6E6C
:100E00000750036E000E0B6433EF07F00B50075EC4
:100E1000D8B4D4EF07F0070E0764A2EF07F0075E1F
:100E200000C008F001C000F002C001F0026A074EE5
:100E3000D4EF07F0076477EF07F0075E00C008F013
:100E400001C000F0016A074ED4EF07F0076455EFC8
:100E500007F0075E00C008F0006A074ED4EF07F005
:100E600007643CEF07F00AC002F005C001F004C0BF
:100E700000F0086A00EF09F0030E076447EF07F07F
:100E8000075E08380F0B086E074ED4EF07F0D890B6
:100E90000832074ED4EF07F0D8900832074ED4EF4F
:100EA00007F0D8900832D4EF07F0030E076466EF1E
:100EB00007F0075E08380F0B086E0038F00B0826A5
:100EC00000380F0B006E074ED4EF07F0D8900032B9
:100ED0000832074ED4EF07F0D89000320832074EA0
:100EE000D4EF07F0D89000320832D4EF07F0030EA9
:100EF00007648EEF07F0075E08380F0B086E0038A6
:100F0000F00B082600380F0B006E0138F00B00269E
:100F100001380F0B016E074ED4EF07F0D890013265
:100F200000320832074ED4EF07F0D8900132003279
:100F30000832074ED4EF07F0D89001320032083261
:100F4000D4EF07F0030E0764BFEF07F0075E083821
:100F50000F0B086E0038F00B082600380F0B006EE0
:100F60000138F00B002601380F0B016E0238F00B30
:100F7000012602380F0B026E074ED4EF07F0D8900F
:100F80000232013200320832074ED4EF07F0D89017
:100F90000232013200320832074ED4EF07F0D89007
:100FA0000232013200320832096A000E0EAEC8EF7A
:100FB00008F0081E001E011E021E082A002201223F
:100FC0000222C8EF08F00750D8A4E9EF07F000EFBD
:100FD00009F0096A02C00AF0028E068E0750035C0F
:100FE000076ED8B4BBEF08F0070E076489EF08F06E
:100FF000075E0450096E0550046E0650056E066AC1
:10100000074EBBEF08F0070E07645EEF08F0075EBF
:101010000450096E0550046E056A074EBBEF08F0D8
:10102000070E07643CEF08F0075E0450096E046A7F
:10103000074EBBEF08F0070E076423EF08F00AC065
:1010400002F000EF09F0030E07642EEF08F0075ED0
:1010500009380F0B096E074EBBEF08F0D890093224
:10106000074EBBEF08F0D8900932074EBBEF08F0EF
:10107000D8900932BBEF08F0030E07644DEF08F07B
:10108000075E09380F0B096E0438F00B0926043887
:101090000F0B046E074EBBEF08F0D89004320932F4
:1010A000074EBBEF08F0D89004320932074EBBEF71
:1010B00008F0D89004320932BBEF08F0030E076441
:1010C00075EF08F0075E09380F0B096E0438F00B56
:1010D000092604380F0B046E0538F00B042605387A
:1010E0000F0B056E074EBBEF08F0D89005320432A7
:1010F0000932074EBBEF08F0D890053204320932AE
:10110000074EBBEF08F0D890053204320932BBEF2E
:1011100008F0030E0764A6EF08F0075E09380F0B0E
:10112000096E0438F00B092604380F0B046E0538DD
:10113000F00B042605380F0B056E0638F00B05265C
:1011400006380F0B066E074EBBEF08F0D89006323C
:10115000053204320932074EBBEF08F0D890063250
:10116000053204320932074EBBEF08F0D890063240
:10117000053204320932086A000E0EAEC8EF08F0DC
:10118000091E041E051E061E092A04220522062227
:101190000950082604500022055001220650022260
:1011A0000EBEDFEF08F0D8A0EEEF08F002320132F9
:1011B00000320832033EEEEF08F0FAEF08F0D8B044
:1011C000F4EF08F0000E081E001E011E021E082A81
:1011D0000022012202220A7EF4EF08F0010E0C6EBA
:1011E000AFEC04F002EF09F0020E0C6EAFEC04F06D
:1011F00002EF09F0040E0C6EBDEC03F002EF09F0F3
:06120000000E0C6E12004E
:1012060000019E6B9F6B97C09CF098C09DF096C0A6
:1012160000F00036009067C0E1FF68C0E2FF00C042
:10122600E6FF65C000F066C001F026EC01F0005054
:1012360000019E13000E9F1399C000F09AC001F0A2
:10124600010E995F000E9A5B0050011018E067C00E
:10125600E1FF68C0E2FF9CC0E9FF9DC0EAFFEECF58
:10126600E6FF65C000F066C001F026EC01F0005014
:1012760000019E13000E9F139C4B9D2BDDD79B51A7
:10128600000A06E161C000F062C001F026EC01F040
:1012960000019B51010A06E159C000F05AC001F055
:0E12A60026EC01F09EC000F09FC001F0120087
:1012B400300E00019025006E000E9121016E000E8B
:1012C4009221026E1C0E0024F66E000E0120F76EB1
:1012D400000E0220F86E0900F5CF55F00900F5CF95
:1012E40056F00900F5CF57F00900F5CF58F0120079
:1012F40090C093F091C094F092C095F00BD0A00EE2
:10130400C86E88DC44D0280EC86E84DC40D0040E3D
:10131400006E3FD093C0F6FF94C0F7FF95C0F8FF6E
:101324000900F5CF01F00900F5CF02F00900F5CF6F
:1013340003F00900F5CF04F00450000A08E103505B
:10134400010A05E10250860A02E10150A00AD7E031
:1013540093C0F6FF94C0F7FF95C0F8FF0900F5CFDE
:1013640001F00900F5CF02F00900F5CF03F0090000
:10137400F5CF04F00450000A08E10350060A05E121
:1013840002501A0A02E10150800ABDE0C0D7000EE3
:04139400006E1200D5
:1013980090C0F6FF91C0F7FF92C0F8FF0900F5CFA3
:1013A80051F00900F5CF52F00900F5CF53F00900CC
:1013B800F5CF54F0040E00019025F66E000E912131
:1013C800F76E000E9221F86E0900F5CF61F0090062
:1013D800F5CF62F00900F5CF63F00900F5CF64F0AE
:1013E800080E9025F66E000E9121F76E000E9221E0
:1013F800F86E0900F5CF59F00900F5CF5AF0090049
:10140800F5CF5BF00900F5CF5CF00C0E9025F66E79
:10141800000E9121F76E000E9221F86E0900F5CFAB
:1014280065F00900F5CF66F00900F5CF67F009000F
:10143800F5CF68F0100E9025F66E000E9121F76E2C
:10144800000E9221F86E0900F5CF69F00900F5CF7A
:101458006AF00900F5CF6BF00900F5CF6CF01200C7
:1014680027D0CF0EAF6EAC94B3EC05F070D0670EFA
:10147800AF6EAC94B3EC05F06AD0CF0EAF6EAC840F
:10148800B3EC05F064D0670EAF6EAC84B3EC05F036
:101498005ED0440EAF6EAC84B3EC05F058D0220E8B
:1014A800AF6EAC84B3EC05F052D0060E006E58D087
:1014B8000001000E006E931908E10050921905E131
:1014C800120E911902E19051C00ACBE0000E006E95
:1014D800931908E10050921905E1250E911902E1CE
:1014E8009051800AC4E0000E006E931908E1005084
:1014F800921905E14B0E911902E19051000ABDE0E5
:10150800000E006E931908E10050921905E1960E3D
:10151800911902E19051000AB6E0000E006E93198D
:1015280008E10050921905E1E10E911902E190518C
:10153800000AAFE09351000A08E19251010A05E15F
:101548009151C20A02E19051000AA9E0AED77C0E7F
:10155800276E010E286EA60E296E000E2A6E006AEE
:0215680012006F
:10156A003ED00F0120870D0E1F6F040E1E6F2185BE
:10157A00DFEC05F083D00F012087060E1F6F820E65
:10158A001E6F2185DFEC05F079D00F012087030E4D
:10159A001F6F400E1E6F2185DFEC05F06FD00F0123
:1015AA002087010E1F6FA00E1E6F2185DFEC05F04C
:1015BA0065D00F012087010E1F6F150E1E6F218542
:1015CA00DFEC05F05BD00F0120871F6B8A0E1E6FC0
:1015DA002185DFEC05F052D0060E006E58D0000EC1
:1015EA00006E0001931908E10050921905E1120EEC
:1015FA00911902E19051C00AB4E0000E006E9319ED
:10160A0008E10050921905E1250E911902E1905165
:10161A00800AB1E0000E006E931908E10050921999
:10162A0005E14B0E911902E19051000AAEE0000E5D
:10163A00006E931908E10050921905E1960E91196E
:10164A0002E19051000AABE0000E006E931908E126
:10165A000050921905E1E10E911902E19051000A38
:10166A00A8E09351000A08E19251010A05E191515B
:10167A00C20A02E19051000AA6E0AED76C0E276EAC
:10168A00010E286EA60E296E000E2A6E006A12003E
:10169A0027D0CF0EAF6EAC94B3EC05F070D0670EC6
:1016AA00AF6EAC94B3EC05F06AD0CF0EAF6EAC84DB
:1016BA00B3EC05F064D0670EAF6EAC84B3EC05F002
:1016CA005ED0440EAF6EAC84B3EC05F058D0220E57
:1016DA00AF6EAC84B3EC05F052D0060E006E58D053
:1016EA000001000E006E931908E10050921905E1FD
:1016FA00120E911902E19051C00ACBE0000E006E61
:10170A00931908E10050921905E1250E911902E199
:10171A009051800AC4E0000E006E931908E100504F
:10172A00921905E14B0E911902E19051000ABDE0B0
:10173A00000E006E931908E10050921905E1960E09
:10174A00911902E19051000AB6E0000E006E931959
:10175A0008E10050921905E1E10E911902E1905158
:10176A00000AAFE09351000A08E19251010A05E12B
:10177A009151C20A02E19051000AA9E0AED77C0E4B
:10178A00276E010E286EA60E296E000E2A6E006ABA
:02179A0012003B
:10179C0090C093F091C094F092C095F00DD0A00E33
:1017AC00C86E0CEC06F045D0280EC86E0CEC06F09A
:1017BC0040D0040E006E3FD093C0F6FF94C0F7FFEC
:1017CC0095C0F8FF0900F5CF01F00900F5CF02F044
:1017DC000900F5CF03F00900F5CF04F00450000A1E
:1017EC0008E10350010A05E10250860A02E10150AA
:1017FC00A00AD5E093C0F6FF94C0F7FF95C0F8FFA0
:10180C000900F5CF01F00900F5CF02F00900F5CF82
:10181C0003F00900F5CF04F00450000A08E103506E
:10182C00060A05E102501A0A02E10150800ABCE0E6
:08183C00C0D7000E006E12007F
:1018440090C093F091C094F092C095F00DD0A00E8A
:10185400C86E0CEC06F045D0280EC86E0CEC06F0F1
:1018640040D0040E006E3FD093C0F6FF94C0F7FF43
:1018740095C0F8FF0900F5CF01F00900F5CF02F09B
:101884000900F5CF03F00900F5CF04F00450000A75
:1018940008E10350010A05E10250860A02E1015001
:1018A400A00AD5E093C0F6FF94C0F7FF95C0F8FFF7
:1018B4000900F5CF01F00900F5CF02F00900F5CFDA
:1018C40003F00900F5CF04F00450000A08E10350C6
:1018D400060A05E102501A0A02E10150800ABCE03E
:0818E400C0D7000E006E1200D7
:1018EC0090C091F0A0EC05F05DC096F0910E976F52
:1018FC00000E986F010E996F000E9A6F010E9B6F80
:10190C007CDCE5EC06F0E5EC06F05DC096F0920EA2
:10191C000001976F000E986F020E996F000E9A6F70
:10192C009B6B81EC06F00001946B956B92C094F06C
:10193C00000E956F94C001F0006A00C094F001C0D5
:10194C0095F093510012000E011200C094F001C0EA
:04195C0095F01200F0
:1019600090C004F091C005F004C002F005C003F07F
:10197000044A052A92C000F093C001F00001924B86
:10198000932B00C0E9FF01C0EAFF02C0E1FF03C0E2
:10199000E2FFEECFE6FF02C0E9FF03C0EAFFEE522E
:0E19A00001E0E2D790C000F091C001F012000B
:1019AE000A6A0350D8A40A800750D8A40A820A50A3
:1019BE00D8B43AEF0DF0030AD8B4F3EF0CF00AB036
:1019CE00EEEF0CF006AE38EF0DF036EF0DF002AE86
:1019DE0036EF0DF038EF0DF00250800B0A6E029EBE
:1019EE000650800B069E0A18D8B404EF0DF00A506C
:1019FE00D8B436EF0DF038EF0DF00750035CD8B4C5
:101A0E000EEF0DF0D8A02AEF0DF030EF0DF00650CE
:101A1E00025CD8B418EF0DF0D8A02AEF0DF030EF1D
:101A2E000DF00550015CD8B422EF0DF0D8A02AEFCE
:101A3E000DF030EF0DF00450005CD8B43AEF0DF01D
:101A4E00D8B030EF0DF00A52D8B438EF0DF036EFB3
:101A5E000DF00A52D8B436EF0DF038EF0DF0D880F5
:0E1A6E001200D8901200D880D8841200120006
:101A7C0027D0CF0EAF6EAC94B3EC05F070D0670EE0
:101A8C00AF6EAC94B3EC05F06AD0CF0EAF6EAC84F5
:101A9C00B3EC05F064D0670EAF6EAC84B3EC05F01C
:101AAC005ED0440EAF6EAC84B3EC05F058D0220E71
:101ABC00AF6EAC84B3EC05F052D0060E006E58D06D
:101ACC000001000E006E931908E10050921905E117
:101ADC00120E911902E19051C00ACBE0000E006E7B
:101AEC00931908E10050921905E1250E911902E1B4
:101AFC009051800AC4E0000E006E931908E100506A
:101B0C00921905E14B0E911902E19051000ABDE0CA
:101B1C00000E006E931908E10050921905E1960E23
:101B2C00911902E19051000AB6E0000E006E931973
:101B3C0008E10050921905E1E10E911902E1905172
:101B4C00000AAFE09351000A08E19251010A05E145
:101B5C009151C20A02E19051000AA9E0AED77C0E65
:101B6C00276E010E286EA60E296E000E2A6E006AD4
:021B7C00120055
:081B7E00067EF0EC06F01200F7
:101B8600086A096A000E0762036448EF0EF0025005
:101B960006180A6E075003267E0ED8A0D9EF0DF060
:101BA600035ED8B04DEF0EF0DDEF0DF0035ED8A06A
:101BB60052EF0EF0028E068E02C00EF001C00BF040
:101BC60000C00DF000500402F4CF0CF001500502E5
:101BD600F4CF00F0F3CF08F00402F3500C26F450D3
:101BE6000822000E00220D500502F3500C26F45078
:101BF6000822000E002202500402F3500826F45078
:101C0600002202500502016A000E0122F35000264E
:101C1600F45001220D500602F3500826F45000221B
:101C2600026A000E012202220B500602F350002621
:101C3600F4500122000E02220E500602F350012635
:101C4600F450022202BE30EF0EF00836003601369E
:101C560002360306D8B452EF0EF043EF0EF0D880EA
:101C6600800E08640030000E002201220222D8A055
:101C760043EF0EF0023201320032034A4DEF0EF00E
:101C86000AAE029E000E55EF0EF0010EC9EC03F0EF
:101C960055EF0EF0020EBDEC03F055EF0EF0040EFC
:061CA6001AEC04F012002C
:101CAC000D6A086A0050D8B4000C04180A6E0ABEFB
:101CBC000D1E0B6A04AE02D0041E042A00AE02D024
:101CCC00001E002A005004100A6E0ABE1FD00450D9
:101CDC00085E003600340836045008260036060E1E
:101CEC000C6E00340836045000B0085E00A00826C4
:101CFC0000360C2EF6D700A008260BB015D00DAE72
:101D0C00000C001E002A081E082A000C04AE09D084
:101D1C0000BE04D00050086E006AF1D7006A002A99
:101D2C00000C001E0B2AD3D7082A0450085CD8A438
:0E1D3C00E6D7086A002A00AEE2D7FF0C1200BC
:101D4A005DD0000191B102D0929401D092840F012A
:101D5A0025957AD0000191B102D0969601D0968647
:101D6A0073D0000191B102D0969401D096846CD0C0
:101D7A00000191B102D0949601D0948665D00001F9
:101D8A0091B102D0949801D094885ED0000191B1AB
:101D9A0002D0949A01D0948A57D0000191B102D00E
:101DAA00989001D0988050D0000191B102D09394BC
:101DBA0001D0938449D0000191B102D0989401D006
:101DCA0098840F01239540D0000191B102D09892D6
:101DDA0001D098820F01239337D0000191B102D02C
:101DEA00949601D0948630D0000191B102D0949893
:101DFA0001D0948829D0010E006E28D0000190519C
:101E0A00000A9FE09051010AA5E09051020AA9E058
:101E1A009051030AADE09051040AB1E09051050ACD
:101E2A00B5E09051060AB9E09051070ABDE0905119
:101E3A00080AC1E09051090AC7E090510A0ACDE0A8
:0E1E4A0090510B0AD1E0D7D7000E006E1200A7
:101E58000050086E0150006E016A026A036A0B6A3C
:101E68000C6A960E036E0A6A00C001F008C000F002
:0A1E7800086A026A48EC06F0120046
:101E820059D0000191B102D0929201D092820F01F9
:101E9200259376D0000191B102D0929801D0928818
:101EA2006FD0000191B102D0969201D0968268D093
:101EB200000191B102D0949601D0948661D00001C4
:101EC20091B102D0949801D094885AD0000191B176
:101ED20002D0949A01D0948A53D0000191B102D0D9
:101EE200949401D094844CD0000191B102D0939289
:101EF20001D0938245D0000191B102D0949E01D0CD
:101F0200948E3ED0000191B102D0949C01D0948C69
:101F120037D0000191B102D0949601D0948630D08E
:101F2200000191B102D0949801D0948829D0010E79
:101F3200006E28D000019051000AA3E09051010ADE
:101F4200A9E09051020AADE09051030AB1E090512C
:101F5200040AB5E09051050AB9E09051060ABDE0C5
:101F62009051070AC1E09051080AC5E09051090A50
:101F7200C9E090510A0ACDE090510B0AD1E0D7D7BF
:061F8200000E006E1200CB
:101F880059D0000191B102D0929001D092800F01F6
:101F9800259176D0000191B102D0949001D094801F
:101FA8006FD0000191B102D0969001D0968068D090
:101FB800000191B102D0949601D0948661D00001BD
:101FC80091B102D0949801D094885AD0000191B16F
:101FD80002D0949A01D0948A53D0000191B102D0D2
:101FE800949201D094824CD0000191B102D0939088
:101FF80001D0938045D0000191B102D0949E01D0C8
:10200800948E3ED0000191B102D0949C01D0948C62
:1020180037D0000191B102D0949601D0948630D087
:10202800000191B102D0949801D0948829D0010E72
:10203800006E28D000019051000AA3E09051010AD7
:10204800A9E09051020AADE09051030AB1E0905125
:10205800040AB5E09051050AB9E09051060ABDE0BE
:102068009051070AC1E09051080AC5E09051090A49
:10207800C9E090510A0ACDE090510B0AD1E0D7D7B8
:06208800000E006E1200C4
:10208E0029C0E1FF2AC0E2FF90C0E9FF91C0EAFF3C
:10209E00EECFE6FF27C000F028C001F026EC01F0DD
:0420AE00006A1200B2
:1020B20015D086C090F087C091F065DF1AD086C037
:1020C20090F087C091F0DCDE14D086C090F087C01B
:1020D20091F03ADE0ED0010E006E0BD00001855158
:1020E200000AE7E08551010AEAE08551020AEDE0C3
:0420F200F2D712000F
:1020F6001ED086C090F087C091F088C092F07AEC2E
:1021060009F020D086C090F087C091F088C092F088
:10211600CEEC0BF017D086C090F087C091F088C047
:1021260092F022EC0CF00ED0010E006E0BD00001E6
:102136008551000ADEE08551010AE4E08551020A74
:06214600EAE0F2D71200EE
:10214C002ED086C090F087C091F088C092F089C0E4
:10215C0093F08EDC32D086C090F087C091F088C0AE
:10216C0092F089C093F04DEC0BF027D086C090F024
:10217C0087C091F088C092F089C093F0B5EC0AF05A
:10218C001CD086C090F087C091F088C092F089C0B6
:10219C0093F034EC0AF011D0010E006E0ED0000159
:1021AC008551000ACEE08551010AD5E08551020A1D
:0C21BC00DDE08551100AE5E0EFD71200CD
:1021C8000001906B76EC0CF043DEFF0E046EFF0E00
:1021D800056E240E066E760E076ED1DC000E046EB8
:1021E800000E056E200E066E840E076EC4DC12000B
:1021F8000001606B8F6B85C08BF086C08CF087C048
:102208008DF088C08EF08E51FF0A08E18D51FF0ACB
:1022180005E18C51FF0A02E18B51FF0A0DE189C0EB
:1022280090F08AC091F0190E926F000E936FB0EC87
:102238000CF0030E006EEFD1010E5E6E8DAF0ED066
:10224800800E8D19006E00C08DF05E2A89C0E1FFF6
:102258008AC0E2FF2D0EE66E894B8A2B000E006EB7
:102268008E1908E100508D1905E100508C1902E122
:102278008B51000A0CE189C090F08AC091F01D0EC4
:10228800926F000E936FB0EC0CF0006AC4D18E51BF
:10229800FF0A08E18D51000A05E18C51000A02E1AC
:1022A8008B51000A0DE189C090F08AC091F0230E8D
:1022B800926F000E936FB0EC0CF05EC000F0ABD1E3
:1022C800000E046E000E056E000E066E7F0E076E81
:1022D8008BC000F08CC001F08DC002F08EC003F0FE
:1022E800D7EC0CF0010ED8B0000E006E00521BE0C7
:1022F8008BC000F08CC001F08DC002F08EC003F0DE
:10230800000E046E000E056E200E066E820E076E1D
:1023180036DC00C08BF001C08CF002C08DF003C029
:102328008EF08F07CDD7000E046E000E056E200EBE
:10233800066E820E076E8BC000F08CC001F08DC057
:1023480002F08EC003F0D7EC0CF0000ED8B0010EEE
:10235800006E00521BE08BC000F08CC001F08DC0F5
:1023680002F08EC003F0CD0E046ECC0E056E4C0E3E
:10237800066E7B0E076E03DC00C08BF001C08CF08C
:1023880002C08DF003C08EF08F2BCDD7FF0E8B15BA
:10239800086EFF0E8C15096E7F0E8D150A6E000EE5
:1023A8008E150B6E08C004F009C005F00AC006F0CF
:1023B8000BC007F004360490053606360736000EC3
:1023C8008B15006E000E8C15016E000E8D15026EB9
:1023D800FF0E8E15036E00C08BF001C08CF002C09A
:1023E8008DF003C08EF004508B11006E05508C11D7
:1023F800016E06508D11026E07508E11036E00C0DB
:102408008BF001C08CF002C08DF003C08EF07F0EFF
:102418008E5D006E00C05FF0010E8E6F00C004F08C
:102428008BC000F08CC001F08DC002F08EC003F0AC
:10243800045007E000360090013602360336FF0FDD
:10244800F8D700C08BF001C08CF002C08DF003C03B
:102458008EF089C0E1FF8AC0E2FF8E51300FE66E30
:10246800894B8A2B800E8F19006E800E010A005C42
:1024780008E3800E060A006E800E8F19005C01E3E7
:102488000AD089C0E1FF8AC0E2FF2E0EE66E894BB2
:102498008A2B010E606F060E5F6E5F50000A54E0D3
:1024A8008E6B8BC000F08CC001F08DC002F08EC026
:1024B80003F00036009001360236033600360090ED
:1024C8000136023603368B5100268C5101228D517C
:1024D80002228E51032200C08BF001C08CF002C092
:1024E8008DF003C08EF08BC000F08CC001F08DC061
:1024F80002F08EC003F00036009001360236033633
:1025080000C08BF001C08CF002C08DF003C08EF0CB
:1025180089C0E1FF8AC0E2FF8E51300FE66E894B19
:102528008A2B6051000A0EE18F078F51000A0AE1D9
:1025380089C0E1FF8AC0E2FF2E0EE66E894B8A2B26
:10254800010E606F5F06A9D7FF0E8925E96EFF0EA1
:102558008A21EA6EEE50300A05E1010E895F000E0D
:102568008A5BF2D7FF0E8925E96EFF0E8A21EA6E93
:10257800EE502E0A04E1010E895F000E8A5B8F512E
:10258800000A43E089C0E1FF8AC0E2FF650EE66EFB
:10259800894B8A2B800E8F19006E800E000A005C12
:1025A8000BE289C0E1FF8AC0E2FF2D0EE66E894B7F
:1025B8008A2B8F5100088F6F8FC05FF0800E090A39
:1025C800006E800E8F19005C0FE20A0E046E5FC069
:1025D80000F056EC0EF089C0E1FF8AC0E2FF00501F
:1025E800300FE66E894B8A2B0A0E046E5FC000F02E
:1025F80056EC0EF008C000F089C0E1FF8AC0E2FF87
:102608000050300FE66E894B8A2B89C0E1FF8AC0E3
:08261800E2FFE66A006A12000D
:10262000520E0B6E2B0E0C6E000E0D6E0D2EFED785
:0C2630000C2EFCD70B2EFAD70000120075
:10263C0085C05EF086C05FF00D0E0001606F0A0E63
:10264C00886F33D05EC090F05FC091F01ADD38D047
:10265C005EC0E9FF5FC0EAFFEE5208E05EC090F09A
:10266C005FC091F00EDD5E4A5F2AF2D729D05EC0C2
:10267C00E9FF5FC0EAFFEE5208E05EC090F05FC079
:10268C0091F0FFDC5E4A5F2AF2D7600E0001906F7A
:10269C00000E916FF6DC880E0001906F000E916FAA
:1026AC00F0DC0ED0060E006E0CD000018751000A33
:1026BC00C9E08751010ACCE08751020AD8E0F2D771
:0426CC00006A12008E
:1026D000090E0B6E1E0E0C6EE40E0D6E0D2EFED747
:0C26E0000C2EFCD70B2EFAD700001200C5
:1026EC008BC05DF088C090F089C091F08AC092F0E8
:1026FC00CCEC09F085C090F086C091F087C092F0C8
:06270C005AEC09F0120076
:10271200020E5E6E100E5F6E0001606BA0EC05F0A3
:102722005DC096F05E0E976F000E986F030E996F64
:0C273200000E9A6F9B6B03EC09F0120084
:10273E000001856B070E866F010E876FB3DC0001FB
:10274E00856B800E866F280E876F000E886FCCDC2F
:10275E00010E0001856F800E866F250E876F000EAD
:0A276E00886F896FECDCADDF12000C
:10277800FA0E0001856F270E866F000E876F5A0EBE
:10278800886F280E896F000E8A6F400E8B6FAADF44
:06279800BCDF9ADF120015
:10279E0014DD00C03FF001C040F002C041F003C0A4
:1027AE0042F000C085F001C086F002C087F003C081
:1027BE0088F0470E896F000E8A6F17DD470E856F02
:0E27CE00000E866F020E876F32DF23DF1200CF
:1027DC000900F5CFE6FF0006FBE10106F9E1120066
:0E27EC0042EC14F0A6DFC2DFD4DFFED7FFD729
:1028840010EE15F0120E006E010E016E6E0EF66E55
:0E289400280EF76E000EF86EEEEC13F0120038
:1027FA009801A6008A01A6005E01A6003401A6007F
:10280A002601A6005001A6004201A600A601A600C4
:10281A000802A600FA01A6002402A6001602A600D3
:10282A0008030000C402000092020000B002000087
:10283A009C0200007E0200008C030000A602000039
:10284A0088020000BA020000820300007803000038
:10285A00A0070000D6040000800400009E05A00026
:04286A00DA04A000EC
:04286E000000000066
:042872004E614E0065
:02287600300030
:04287800000000005C
:04287C00494E46007B
:04288000A08601002D
:020000040030CA
:0E00000015137F7CF98B91FFFFC0FFE0FF40DE
:00000001FF
